{
	"contracts/Contract.sol": {
		"Contract": {
			"abi": [
				{
					"inputs": [],
					"stateMutability": "nonpayable",
					"type": "constructor"
				},
				{
					"anonymous": false,
					"inputs": [
						{
							"indexed": false,
							"internalType": "string",
							"name": "message",
							"type": "string"
						}
					],
					"name": "Announcement",
					"type": "event"
				},
				{
					"inputs": [],
					"name": "getBalance",
					"outputs": [
						{
							"internalType": "uint256",
							"name": "",
							"type": "uint256"
						}
					],
					"stateMutability": "view",
					"type": "function"
				},
				{
					"inputs": [
						{
							"internalType": "uint256",
							"name": "_toPay",
							"type": "uint256"
						}
					],
					"name": "pay",
					"outputs": [],
					"stateMutability": "nonpayable",
					"type": "function"
				},
				{
					"inputs": [],
					"name": "price",
					"outputs": [
						{
							"internalType": "uint256",
							"name": "",
							"type": "uint256"
						}
					],
					"stateMutability": "view",
					"type": "function"
				},
				{
					"inputs": [],
					"name": "seller",
					"outputs": [
						{
							"internalType": "address",
							"name": "",
							"type": "address"
						}
					],
					"stateMutability": "view",
					"type": "function"
				},
				{
					"inputs": [
						{
							"internalType": "uint256",
							"name": "_newPrice",
							"type": "uint256"
						}
					],
					"name": "setPrice",
					"outputs": [],
					"stateMutability": "nonpayable",
					"type": "function"
				}
			],
			"devdoc": {
				"kind": "dev",
				"methods": {},
				"version": 1
			},
			"evm": {
				"assembly": "    /* \"contracts/Contract.sol\":61:918  contract Contract {... */\n  mstore(0x40, 0x80)\n    /* \"contracts/Contract.sol\":173:174  0 */\n  0x00\n    /* \"contracts/Contract.sol\":141:174  uint256 private sellerBalance = 0 */\n  0x02\n  sstore\n    /* \"contracts/Contract.sol\":226:279  constructor () {... */\n  callvalue\n  dup1\n  iszero\n  tag_1\n  jumpi\n  0x00\n  dup1\n  revert\ntag_1:\n  pop\n    /* \"contracts/Contract.sol\":261:271  msg.sender */\n  caller\n    /* \"contracts/Contract.sol\":252:258  seller */\n  0x00\n  dup1\n    /* \"contracts/Contract.sol\":252:271  seller = msg.sender */\n  0x0100\n  exp\n  dup2\n  sload\n  dup2\n  0xffffffffffffffffffffffffffffffffffffffff\n  mul\n  not\n  and\n  swap1\n  dup4\n  0xffffffffffffffffffffffffffffffffffffffff\n  and\n  mul\n  or\n  swap1\n  sstore\n  pop\n    /* \"contracts/Contract.sol\":61:918  contract Contract {... */\n  dataSize(sub_0)\n  dup1\n  dataOffset(sub_0)\n  0x00\n  codecopy\n  0x00\n  return\nstop\n\nsub_0: assembly {\n        /* \"contracts/Contract.sol\":61:918  contract Contract {... */\n      mstore(0x40, 0x80)\n      callvalue\n      dup1\n      iszero\n      tag_1\n      jumpi\n      0x00\n      dup1\n      revert\n    tag_1:\n      pop\n      jumpi(tag_2, lt(calldatasize, 0x04))\n      shr(0xe0, calldataload(0x00))\n      dup1\n      0x08551a53\n      eq\n      tag_3\n      jumpi\n      dup1\n      0x12065fe0\n      eq\n      tag_4\n      jumpi\n      dup1\n      0x91b7f5ed\n      eq\n      tag_5\n      jumpi\n      dup1\n      0xa035b1fe\n      eq\n      tag_6\n      jumpi\n      dup1\n      0xc290d691\n      eq\n      tag_7\n      jumpi\n    tag_2:\n      0x00\n      dup1\n      revert\n        /* \"contracts/Contract.sol\":86:107  address public seller */\n    tag_3:\n      tag_8\n      tag_9\n      jump\t// in\n    tag_8:\n      mload(0x40)\n      tag_10\n      swap2\n      swap1\n      tag_11\n      jump\t// in\n    tag_10:\n      mload(0x40)\n      dup1\n      swap2\n      sub\n      swap1\n      return\n        /* \"contracts/Contract.sol\":601:705  function getBalance() external view onlySeller returns (uint256) {... */\n    tag_4:\n      tag_12\n      tag_13\n      jump\t// in\n    tag_12:\n      mload(0x40)\n      tag_14\n      swap2\n      swap1\n      tag_15\n      jump\t// in\n    tag_14:\n      mload(0x40)\n      dup1\n      swap2\n      sub\n      swap1\n      return\n        /* \"contracts/Contract.sol\":405:593  function setPrice(uint256 _newPrice) external onlySeller {... */\n    tag_5:\n      tag_16\n      0x04\n      dup1\n      calldatasize\n      sub\n      dup2\n      add\n      swap1\n      tag_17\n      swap2\n      swap1\n      tag_18\n      jump\t// in\n    tag_17:\n      tag_19\n      jump\t// in\n    tag_16:\n      stop\n        /* \"contracts/Contract.sol\":114:134  uint256 public price */\n    tag_6:\n      tag_20\n      tag_21\n      jump\t// in\n    tag_20:\n      mload(0x40)\n      tag_22\n      swap2\n      swap1\n      tag_15\n      jump\t// in\n    tag_22:\n      mload(0x40)\n      dup1\n      swap2\n      sub\n      swap1\n      return\n        /* \"contracts/Contract.sol\":717:915  function pay(uint256 _toPay) external {... */\n    tag_7:\n      tag_23\n      0x04\n      dup1\n      calldatasize\n      sub\n      dup2\n      add\n      swap1\n      tag_24\n      swap2\n      swap1\n      tag_18\n      jump\t// in\n    tag_24:\n      tag_25\n      jump\t// in\n    tag_23:\n      stop\n        /* \"contracts/Contract.sol\":86:107  address public seller */\n    tag_9:\n      0x00\n      dup1\n      sload\n      swap1\n      0x0100\n      exp\n      swap1\n      div\n      0xffffffffffffffffffffffffffffffffffffffff\n      and\n      dup2\n      jump\t// out\n        /* \"contracts/Contract.sol\":601:705  function getBalance() external view onlySeller returns (uint256) {... */\n    tag_13:\n        /* \"contracts/Contract.sol\":657:664  uint256 */\n      0x00\n        /* \"contracts/Contract.sol\":343:349  seller */\n      dup1\n      0x00\n      swap1\n      sload\n      swap1\n      0x0100\n      exp\n      swap1\n      div\n      0xffffffffffffffffffffffffffffffffffffffff\n      and\n        /* \"contracts/Contract.sol\":329:349  msg.sender == seller */\n      0xffffffffffffffffffffffffffffffffffffffff\n      and\n        /* \"contracts/Contract.sol\":329:339  msg.sender */\n      caller\n        /* \"contracts/Contract.sol\":329:349  msg.sender == seller */\n      0xffffffffffffffffffffffffffffffffffffffff\n      and\n      eq\n        /* \"contracts/Contract.sol\":321:377  require(msg.sender == seller, \"Invalid seller address.\") */\n      tag_27\n      jumpi\n      mload(0x40)\n      0x08c379a000000000000000000000000000000000000000000000000000000000\n      dup2\n      mstore\n      0x04\n      add\n      tag_28\n      swap1\n      tag_29\n      jump\t// in\n    tag_28:\n      mload(0x40)\n      dup1\n      swap2\n      sub\n      swap1\n      revert\n    tag_27:\n        /* \"contracts/Contract.sol\":684:697  sellerBalance */\n      sload(0x02)\n        /* \"contracts/Contract.sol\":677:697  return sellerBalance */\n      swap1\n      pop\n        /* \"contracts/Contract.sol\":601:705  function getBalance() external view onlySeller returns (uint256) {... */\n      swap1\n      jump\t// out\n        /* \"contracts/Contract.sol\":405:593  function setPrice(uint256 _newPrice) external onlySeller {... */\n    tag_19:\n        /* \"contracts/Contract.sol\":343:349  seller */\n      0x00\n      dup1\n      sload\n      swap1\n      0x0100\n      exp\n      swap1\n      div\n      0xffffffffffffffffffffffffffffffffffffffff\n      and\n        /* \"contracts/Contract.sol\":329:349  msg.sender == seller */\n      0xffffffffffffffffffffffffffffffffffffffff\n      and\n        /* \"contracts/Contract.sol\":329:339  msg.sender */\n      caller\n        /* \"contracts/Contract.sol\":329:349  msg.sender == seller */\n      0xffffffffffffffffffffffffffffffffffffffff\n      and\n      eq\n        /* \"contracts/Contract.sol\":321:377  require(msg.sender == seller, \"Invalid seller address.\") */\n      tag_32\n      jumpi\n      mload(0x40)\n      0x08c379a000000000000000000000000000000000000000000000000000000000\n      dup2\n      mstore\n      0x04\n      add\n      tag_33\n      swap1\n      tag_29\n      jump\t// in\n    tag_33:\n      mload(0x40)\n      dup1\n      swap2\n      sub\n      swap1\n      revert\n    tag_32:\n        /* \"contracts/Contract.sol\":481:490  _newPrice */\n      dup1\n        /* \"contracts/Contract.sol\":473:478  price */\n      0x01\n        /* \"contracts/Contract.sol\":473:490  price = _newPrice */\n      dup2\n      swap1\n      sstore\n      pop\n        /* \"contracts/Contract.sol\":517:526  _newPrice */\n      dup1\n        /* \"contracts/Contract.sol\":508:513  price */\n      sload(0x01)\n        /* \"contracts/Contract.sol\":508:526  price == _newPrice */\n      eq\n        /* \"contracts/Contract.sol\":501:527  assert(price == _newPrice) */\n      tag_35\n      jumpi\n      tag_36\n      tag_37\n      jump\t// in\n    tag_36:\n    tag_35:\n        /* \"contracts/Contract.sol\":543:585  Announcement(\"Price changed successfully\") */\n      0x07ce702fc13ca0620c174dab22996a6d5fd9e7accb663555a4e85323692706ba\n      mload(0x40)\n      tag_38\n      swap1\n      tag_39\n      jump\t// in\n    tag_38:\n      mload(0x40)\n      dup1\n      swap2\n      sub\n      swap1\n      log1\n        /* \"contracts/Contract.sol\":405:593  function setPrice(uint256 _newPrice) external onlySeller {... */\n      pop\n      jump\t// out\n        /* \"contracts/Contract.sol\":114:134  uint256 public price */\n    tag_21:\n      sload(0x01)\n      dup2\n      jump\t// out\n        /* \"contracts/Contract.sol\":717:915  function pay(uint256 _toPay) external {... */\n    tag_25:\n        /* \"contracts/Contract.sol\":784:789  price */\n      sload(0x01)\n        /* \"contracts/Contract.sol\":774:780  _toPay */\n      dup2\n        /* \"contracts/Contract.sol\":774:789  _toPay == price */\n      eq\n        /* \"contracts/Contract.sol\":766:818  require(_toPay == price, \"Not enough funds to pay.\") */\n      tag_41\n      jumpi\n      mload(0x40)\n      0x08c379a000000000000000000000000000000000000000000000000000000000\n      dup2\n      mstore\n      0x04\n      add\n      tag_42\n      swap1\n      tag_43\n      jump\t// in\n    tag_42:\n      mload(0x40)\n      dup1\n      swap2\n      sub\n      swap1\n      revert\n    tag_41:\n        /* \"contracts/Contract.sol\":834:873  Announcement(\"Item paid successfully!\") */\n      0x07ce702fc13ca0620c174dab22996a6d5fd9e7accb663555a4e85323692706ba\n      mload(0x40)\n      tag_44\n      swap1\n      tag_45\n      jump\t// in\n    tag_44:\n      mload(0x40)\n      dup1\n      swap2\n      sub\n      swap1\n      log1\n        /* \"contracts/Contract.sol\":901:907  _toPay */\n      dup1\n        /* \"contracts/Contract.sol\":884:897  sellerBalance */\n      0x02\n      0x00\n        /* \"contracts/Contract.sol\":884:907  sellerBalance += _toPay */\n      dup3\n      dup3\n      sload\n      tag_46\n      swap2\n      swap1\n      tag_47\n      jump\t// in\n    tag_46:\n      swap3\n      pop\n      pop\n      dup2\n      swap1\n      sstore\n      pop\n        /* \"contracts/Contract.sol\":717:915  function pay(uint256 _toPay) external {... */\n      pop\n      jump\t// out\n        /* \"#utility.yul\":7:133   */\n    tag_48:\n        /* \"#utility.yul\":44:51   */\n      0x00\n        /* \"#utility.yul\":84:126   */\n      0xffffffffffffffffffffffffffffffffffffffff\n        /* \"#utility.yul\":77:82   */\n      dup3\n        /* \"#utility.yul\":73:127   */\n      and\n        /* \"#utility.yul\":62:127   */\n      swap1\n      pop\n        /* \"#utility.yul\":7:133   */\n      swap2\n      swap1\n      pop\n      jump\t// out\n        /* \"#utility.yul\":139:235   */\n    tag_49:\n        /* \"#utility.yul\":176:183   */\n      0x00\n        /* \"#utility.yul\":205:229   */\n      tag_71\n        /* \"#utility.yul\":223:228   */\n      dup3\n        /* \"#utility.yul\":205:229   */\n      tag_48\n      jump\t// in\n    tag_71:\n        /* \"#utility.yul\":194:229   */\n      swap1\n      pop\n        /* \"#utility.yul\":139:235   */\n      swap2\n      swap1\n      pop\n      jump\t// out\n        /* \"#utility.yul\":241:359   */\n    tag_50:\n        /* \"#utility.yul\":328:352   */\n      tag_73\n        /* \"#utility.yul\":346:351   */\n      dup2\n        /* \"#utility.yul\":328:352   */\n      tag_49\n      jump\t// in\n    tag_73:\n        /* \"#utility.yul\":323:326   */\n      dup3\n        /* \"#utility.yul\":316:353   */\n      mstore\n        /* \"#utility.yul\":241:359   */\n      pop\n      pop\n      jump\t// out\n        /* \"#utility.yul\":365:587   */\n    tag_11:\n        /* \"#utility.yul\":458:462   */\n      0x00\n        /* \"#utility.yul\":496:498   */\n      0x20\n        /* \"#utility.yul\":485:494   */\n      dup3\n        /* \"#utility.yul\":481:499   */\n      add\n        /* \"#utility.yul\":473:499   */\n      swap1\n      pop\n        /* \"#utility.yul\":509:580   */\n      tag_75\n        /* \"#utility.yul\":577:578   */\n      0x00\n        /* \"#utility.yul\":566:575   */\n      dup4\n        /* \"#utility.yul\":562:579   */\n      add\n        /* \"#utility.yul\":553:559   */\n      dup5\n        /* \"#utility.yul\":509:580   */\n      tag_50\n      jump\t// in\n    tag_75:\n        /* \"#utility.yul\":365:587   */\n      swap3\n      swap2\n      pop\n      pop\n      jump\t// out\n        /* \"#utility.yul\":593:670   */\n    tag_51:\n        /* \"#utility.yul\":630:637   */\n      0x00\n        /* \"#utility.yul\":659:664   */\n      dup2\n        /* \"#utility.yul\":648:664   */\n      swap1\n      pop\n        /* \"#utility.yul\":593:670   */\n      swap2\n      swap1\n      pop\n      jump\t// out\n        /* \"#utility.yul\":676:794   */\n    tag_52:\n        /* \"#utility.yul\":763:787   */\n      tag_78\n        /* \"#utility.yul\":781:786   */\n      dup2\n        /* \"#utility.yul\":763:787   */\n      tag_51\n      jump\t// in\n    tag_78:\n        /* \"#utility.yul\":758:761   */\n      dup3\n        /* \"#utility.yul\":751:788   */\n      mstore\n        /* \"#utility.yul\":676:794   */\n      pop\n      pop\n      jump\t// out\n        /* \"#utility.yul\":800:1022   */\n    tag_15:\n        /* \"#utility.yul\":893:897   */\n      0x00\n        /* \"#utility.yul\":931:933   */\n      0x20\n        /* \"#utility.yul\":920:929   */\n      dup3\n        /* \"#utility.yul\":916:934   */\n      add\n        /* \"#utility.yul\":908:934   */\n      swap1\n      pop\n        /* \"#utility.yul\":944:1015   */\n      tag_80\n        /* \"#utility.yul\":1012:1013   */\n      0x00\n        /* \"#utility.yul\":1001:1010   */\n      dup4\n        /* \"#utility.yul\":997:1014   */\n      add\n        /* \"#utility.yul\":988:994   */\n      dup5\n        /* \"#utility.yul\":944:1015   */\n      tag_52\n      jump\t// in\n    tag_80:\n        /* \"#utility.yul\":800:1022   */\n      swap3\n      swap2\n      pop\n      pop\n      jump\t// out\n        /* \"#utility.yul\":1109:1226   */\n    tag_54:\n        /* \"#utility.yul\":1218:1219   */\n      0x00\n        /* \"#utility.yul\":1215:1216   */\n      dup1\n        /* \"#utility.yul\":1208:1220   */\n      revert\n        /* \"#utility.yul\":1355:1477   */\n    tag_56:\n        /* \"#utility.yul\":1428:1452   */\n      tag_85\n        /* \"#utility.yul\":1446:1451   */\n      dup2\n        /* \"#utility.yul\":1428:1452   */\n      tag_51\n      jump\t// in\n    tag_85:\n        /* \"#utility.yul\":1421:1426   */\n      dup2\n        /* \"#utility.yul\":1418:1453   */\n      eq\n        /* \"#utility.yul\":1408:1471   */\n      tag_86\n      jumpi\n        /* \"#utility.yul\":1467:1468   */\n      0x00\n        /* \"#utility.yul\":1464:1465   */\n      dup1\n        /* \"#utility.yul\":1457:1469   */\n      revert\n        /* \"#utility.yul\":1408:1471   */\n    tag_86:\n        /* \"#utility.yul\":1355:1477   */\n      pop\n      jump\t// out\n        /* \"#utility.yul\":1483:1622   */\n    tag_57:\n        /* \"#utility.yul\":1529:1534   */\n      0x00\n        /* \"#utility.yul\":1567:1573   */\n      dup2\n        /* \"#utility.yul\":1554:1574   */\n      calldataload\n        /* \"#utility.yul\":1545:1574   */\n      swap1\n      pop\n        /* \"#utility.yul\":1583:1616   */\n      tag_88\n        /* \"#utility.yul\":1610:1615   */\n      dup2\n        /* \"#utility.yul\":1583:1616   */\n      tag_56\n      jump\t// in\n    tag_88:\n        /* \"#utility.yul\":1483:1622   */\n      swap3\n      swap2\n      pop\n      pop\n      jump\t// out\n        /* \"#utility.yul\":1628:1957   */\n    tag_18:\n        /* \"#utility.yul\":1687:1693   */\n      0x00\n        /* \"#utility.yul\":1736:1738   */\n      0x20\n        /* \"#utility.yul\":1724:1733   */\n      dup3\n        /* \"#utility.yul\":1715:1722   */\n      dup5\n        /* \"#utility.yul\":1711:1734   */\n      sub\n        /* \"#utility.yul\":1707:1739   */\n      slt\n        /* \"#utility.yul\":1704:1823   */\n      iszero\n      tag_90\n      jumpi\n        /* \"#utility.yul\":1742:1821   */\n      tag_91\n      tag_54\n      jump\t// in\n    tag_91:\n        /* \"#utility.yul\":1704:1823   */\n    tag_90:\n        /* \"#utility.yul\":1862:1863   */\n      0x00\n        /* \"#utility.yul\":1887:1940   */\n      tag_92\n        /* \"#utility.yul\":1932:1939   */\n      dup5\n        /* \"#utility.yul\":1923:1929   */\n      dup3\n        /* \"#utility.yul\":1912:1921   */\n      dup6\n        /* \"#utility.yul\":1908:1930   */\n      add\n        /* \"#utility.yul\":1887:1940   */\n      tag_57\n      jump\t// in\n    tag_92:\n        /* \"#utility.yul\":1877:1940   */\n      swap2\n      pop\n        /* \"#utility.yul\":1833:1950   */\n      pop\n        /* \"#utility.yul\":1628:1957   */\n      swap3\n      swap2\n      pop\n      pop\n      jump\t// out\n        /* \"#utility.yul\":1963:2132   */\n    tag_58:\n        /* \"#utility.yul\":2047:2058   */\n      0x00\n        /* \"#utility.yul\":2081:2087   */\n      dup3\n        /* \"#utility.yul\":2076:2079   */\n      dup3\n        /* \"#utility.yul\":2069:2088   */\n      mstore\n        /* \"#utility.yul\":2121:2125   */\n      0x20\n        /* \"#utility.yul\":2116:2119   */\n      dup3\n        /* \"#utility.yul\":2112:2126   */\n      add\n        /* \"#utility.yul\":2097:2126   */\n      swap1\n      pop\n        /* \"#utility.yul\":1963:2132   */\n      swap3\n      swap2\n      pop\n      pop\n      jump\t// out\n        /* \"#utility.yul\":2138:2311   */\n    tag_59:\n        /* \"#utility.yul\":2278:2303   */\n      0x496e76616c69642073656c6c657220616464726573732e000000000000000000\n        /* \"#utility.yul\":2274:2275   */\n      0x00\n        /* \"#utility.yul\":2266:2272   */\n      dup3\n        /* \"#utility.yul\":2262:2276   */\n      add\n        /* \"#utility.yul\":2255:2304   */\n      mstore\n        /* \"#utility.yul\":2138:2311   */\n      pop\n      jump\t// out\n        /* \"#utility.yul\":2317:2683   */\n    tag_60:\n        /* \"#utility.yul\":2459:2462   */\n      0x00\n        /* \"#utility.yul\":2480:2547   */\n      tag_96\n        /* \"#utility.yul\":2544:2546   */\n      0x17\n        /* \"#utility.yul\":2539:2542   */\n      dup4\n        /* \"#utility.yul\":2480:2547   */\n      tag_58\n      jump\t// in\n    tag_96:\n        /* \"#utility.yul\":2473:2547   */\n      swap2\n      pop\n        /* \"#utility.yul\":2556:2649   */\n      tag_97\n        /* \"#utility.yul\":2645:2648   */\n      dup3\n        /* \"#utility.yul\":2556:2649   */\n      tag_59\n      jump\t// in\n    tag_97:\n        /* \"#utility.yul\":2674:2676   */\n      0x20\n        /* \"#utility.yul\":2669:2672   */\n      dup3\n        /* \"#utility.yul\":2665:2677   */\n      add\n        /* \"#utility.yul\":2658:2677   */\n      swap1\n      pop\n        /* \"#utility.yul\":2317:2683   */\n      swap2\n      swap1\n      pop\n      jump\t// out\n        /* \"#utility.yul\":2689:3108   */\n    tag_29:\n        /* \"#utility.yul\":2855:2859   */\n      0x00\n        /* \"#utility.yul\":2893:2895   */\n      0x20\n        /* \"#utility.yul\":2882:2891   */\n      dup3\n        /* \"#utility.yul\":2878:2896   */\n      add\n        /* \"#utility.yul\":2870:2896   */\n      swap1\n      pop\n        /* \"#utility.yul\":2942:2951   */\n      dup2\n        /* \"#utility.yul\":2936:2940   */\n      dup2\n        /* \"#utility.yul\":2932:2952   */\n      sub\n        /* \"#utility.yul\":2928:2929   */\n      0x00\n        /* \"#utility.yul\":2917:2926   */\n      dup4\n        /* \"#utility.yul\":2913:2930   */\n      add\n        /* \"#utility.yul\":2906:2953   */\n      mstore\n        /* \"#utility.yul\":2970:3101   */\n      tag_99\n        /* \"#utility.yul\":3096:3100   */\n      dup2\n        /* \"#utility.yul\":2970:3101   */\n      tag_60\n      jump\t// in\n    tag_99:\n        /* \"#utility.yul\":2962:3101   */\n      swap1\n      pop\n        /* \"#utility.yul\":2689:3108   */\n      swap2\n      swap1\n      pop\n      jump\t// out\n        /* \"#utility.yul\":3114:3294   */\n    tag_37:\n        /* \"#utility.yul\":3162:3239   */\n      0x4e487b7100000000000000000000000000000000000000000000000000000000\n        /* \"#utility.yul\":3159:3160   */\n      0x00\n        /* \"#utility.yul\":3152:3240   */\n      mstore\n        /* \"#utility.yul\":3259:3263   */\n      0x01\n        /* \"#utility.yul\":3256:3257   */\n      0x04\n        /* \"#utility.yul\":3249:3264   */\n      mstore\n        /* \"#utility.yul\":3283:3287   */\n      0x24\n        /* \"#utility.yul\":3280:3281   */\n      0x00\n        /* \"#utility.yul\":3273:3288   */\n      revert\n        /* \"#utility.yul\":3300:3476   */\n    tag_61:\n        /* \"#utility.yul\":3440:3468   */\n      0x5072696365206368616e676564207375636365737366756c6c79000000000000\n        /* \"#utility.yul\":3436:3437   */\n      0x00\n        /* \"#utility.yul\":3428:3434   */\n      dup3\n        /* \"#utility.yul\":3424:3438   */\n      add\n        /* \"#utility.yul\":3417:3469   */\n      mstore\n        /* \"#utility.yul\":3300:3476   */\n      pop\n      jump\t// out\n        /* \"#utility.yul\":3482:3848   */\n    tag_62:\n        /* \"#utility.yul\":3624:3627   */\n      0x00\n        /* \"#utility.yul\":3645:3712   */\n      tag_103\n        /* \"#utility.yul\":3709:3711   */\n      0x1a\n        /* \"#utility.yul\":3704:3707   */\n      dup4\n        /* \"#utility.yul\":3645:3712   */\n      tag_58\n      jump\t// in\n    tag_103:\n        /* \"#utility.yul\":3638:3712   */\n      swap2\n      pop\n        /* \"#utility.yul\":3721:3814   */\n      tag_104\n        /* \"#utility.yul\":3810:3813   */\n      dup3\n        /* \"#utility.yul\":3721:3814   */\n      tag_61\n      jump\t// in\n    tag_104:\n        /* \"#utility.yul\":3839:3841   */\n      0x20\n        /* \"#utility.yul\":3834:3837   */\n      dup3\n        /* \"#utility.yul\":3830:3842   */\n      add\n        /* \"#utility.yul\":3823:3842   */\n      swap1\n      pop\n        /* \"#utility.yul\":3482:3848   */\n      swap2\n      swap1\n      pop\n      jump\t// out\n        /* \"#utility.yul\":3854:4273   */\n    tag_39:\n        /* \"#utility.yul\":4020:4024   */\n      0x00\n        /* \"#utility.yul\":4058:4060   */\n      0x20\n        /* \"#utility.yul\":4047:4056   */\n      dup3\n        /* \"#utility.yul\":4043:4061   */\n      add\n        /* \"#utility.yul\":4035:4061   */\n      swap1\n      pop\n        /* \"#utility.yul\":4107:4116   */\n      dup2\n        /* \"#utility.yul\":4101:4105   */\n      dup2\n        /* \"#utility.yul\":4097:4117   */\n      sub\n        /* \"#utility.yul\":4093:4094   */\n      0x00\n        /* \"#utility.yul\":4082:4091   */\n      dup4\n        /* \"#utility.yul\":4078:4095   */\n      add\n        /* \"#utility.yul\":4071:4118   */\n      mstore\n        /* \"#utility.yul\":4135:4266   */\n      tag_106\n        /* \"#utility.yul\":4261:4265   */\n      dup2\n        /* \"#utility.yul\":4135:4266   */\n      tag_62\n      jump\t// in\n    tag_106:\n        /* \"#utility.yul\":4127:4266   */\n      swap1\n      pop\n        /* \"#utility.yul\":3854:4273   */\n      swap2\n      swap1\n      pop\n      jump\t// out\n        /* \"#utility.yul\":4279:4453   */\n    tag_63:\n        /* \"#utility.yul\":4419:4445   */\n      0x4e6f7420656e6f7567682066756e647320746f207061792e0000000000000000\n        /* \"#utility.yul\":4415:4416   */\n      0x00\n        /* \"#utility.yul\":4407:4413   */\n      dup3\n        /* \"#utility.yul\":4403:4417   */\n      add\n        /* \"#utility.yul\":4396:4446   */\n      mstore\n        /* \"#utility.yul\":4279:4453   */\n      pop\n      jump\t// out\n        /* \"#utility.yul\":4459:4825   */\n    tag_64:\n        /* \"#utility.yul\":4601:4604   */\n      0x00\n        /* \"#utility.yul\":4622:4689   */\n      tag_109\n        /* \"#utility.yul\":4686:4688   */\n      0x18\n        /* \"#utility.yul\":4681:4684   */\n      dup4\n        /* \"#utility.yul\":4622:4689   */\n      tag_58\n      jump\t// in\n    tag_109:\n        /* \"#utility.yul\":4615:4689   */\n      swap2\n      pop\n        /* \"#utility.yul\":4698:4791   */\n      tag_110\n        /* \"#utility.yul\":4787:4790   */\n      dup3\n        /* \"#utility.yul\":4698:4791   */\n      tag_63\n      jump\t// in\n    tag_110:\n        /* \"#utility.yul\":4816:4818   */\n      0x20\n        /* \"#utility.yul\":4811:4814   */\n      dup3\n        /* \"#utility.yul\":4807:4819   */\n      add\n        /* \"#utility.yul\":4800:4819   */\n      swap1\n      pop\n        /* \"#utility.yul\":4459:4825   */\n      swap2\n      swap1\n      pop\n      jump\t// out\n        /* \"#utility.yul\":4831:5250   */\n    tag_43:\n        /* \"#utility.yul\":4997:5001   */\n      0x00\n        /* \"#utility.yul\":5035:5037   */\n      0x20\n        /* \"#utility.yul\":5024:5033   */\n      dup3\n        /* \"#utility.yul\":5020:5038   */\n      add\n        /* \"#utility.yul\":5012:5038   */\n      swap1\n      pop\n        /* \"#utility.yul\":5084:5093   */\n      dup2\n        /* \"#utility.yul\":5078:5082   */\n      dup2\n        /* \"#utility.yul\":5074:5094   */\n      sub\n        /* \"#utility.yul\":5070:5071   */\n      0x00\n        /* \"#utility.yul\":5059:5068   */\n      dup4\n        /* \"#utility.yul\":5055:5072   */\n      add\n        /* \"#utility.yul\":5048:5095   */\n      mstore\n        /* \"#utility.yul\":5112:5243   */\n      tag_112\n        /* \"#utility.yul\":5238:5242   */\n      dup2\n        /* \"#utility.yul\":5112:5243   */\n      tag_64\n      jump\t// in\n    tag_112:\n        /* \"#utility.yul\":5104:5243   */\n      swap1\n      pop\n        /* \"#utility.yul\":4831:5250   */\n      swap2\n      swap1\n      pop\n      jump\t// out\n        /* \"#utility.yul\":5256:5429   */\n    tag_65:\n        /* \"#utility.yul\":5396:5421   */\n      0x4974656d2070616964207375636365737366756c6c7921000000000000000000\n        /* \"#utility.yul\":5392:5393   */\n      0x00\n        /* \"#utility.yul\":5384:5390   */\n      dup3\n        /* \"#utility.yul\":5380:5394   */\n      add\n        /* \"#utility.yul\":5373:5422   */\n      mstore\n        /* \"#utility.yul\":5256:5429   */\n      pop\n      jump\t// out\n        /* \"#utility.yul\":5435:5801   */\n    tag_66:\n        /* \"#utility.yul\":5577:5580   */\n      0x00\n        /* \"#utility.yul\":5598:5665   */\n      tag_115\n        /* \"#utility.yul\":5662:5664   */\n      0x17\n        /* \"#utility.yul\":5657:5660   */\n      dup4\n        /* \"#utility.yul\":5598:5665   */\n      tag_58\n      jump\t// in\n    tag_115:\n        /* \"#utility.yul\":5591:5665   */\n      swap2\n      pop\n        /* \"#utility.yul\":5674:5767   */\n      tag_116\n        /* \"#utility.yul\":5763:5766   */\n      dup3\n        /* \"#utility.yul\":5674:5767   */\n      tag_65\n      jump\t// in\n    tag_116:\n        /* \"#utility.yul\":5792:5794   */\n      0x20\n        /* \"#utility.yul\":5787:5790   */\n      dup3\n        /* \"#utility.yul\":5783:5795   */\n      add\n        /* \"#utility.yul\":5776:5795   */\n      swap1\n      pop\n        /* \"#utility.yul\":5435:5801   */\n      swap2\n      swap1\n      pop\n      jump\t// out\n        /* \"#utility.yul\":5807:6226   */\n    tag_45:\n        /* \"#utility.yul\":5973:5977   */\n      0x00\n        /* \"#utility.yul\":6011:6013   */\n      0x20\n        /* \"#utility.yul\":6000:6009   */\n      dup3\n        /* \"#utility.yul\":5996:6014   */\n      add\n        /* \"#utility.yul\":5988:6014   */\n      swap1\n      pop\n        /* \"#utility.yul\":6060:6069   */\n      dup2\n        /* \"#utility.yul\":6054:6058   */\n      dup2\n        /* \"#utility.yul\":6050:6070   */\n      sub\n        /* \"#utility.yul\":6046:6047   */\n      0x00\n        /* \"#utility.yul\":6035:6044   */\n      dup4\n        /* \"#utility.yul\":6031:6048   */\n      add\n        /* \"#utility.yul\":6024:6071   */\n      mstore\n        /* \"#utility.yul\":6088:6219   */\n      tag_118\n        /* \"#utility.yul\":6214:6218   */\n      dup2\n        /* \"#utility.yul\":6088:6219   */\n      tag_66\n      jump\t// in\n    tag_118:\n        /* \"#utility.yul\":6080:6219   */\n      swap1\n      pop\n        /* \"#utility.yul\":5807:6226   */\n      swap2\n      swap1\n      pop\n      jump\t// out\n        /* \"#utility.yul\":6232:6412   */\n    tag_67:\n        /* \"#utility.yul\":6280:6357   */\n      0x4e487b7100000000000000000000000000000000000000000000000000000000\n        /* \"#utility.yul\":6277:6278   */\n      0x00\n        /* \"#utility.yul\":6270:6358   */\n      mstore\n        /* \"#utility.yul\":6377:6381   */\n      0x11\n        /* \"#utility.yul\":6374:6375   */\n      0x04\n        /* \"#utility.yul\":6367:6382   */\n      mstore\n        /* \"#utility.yul\":6401:6405   */\n      0x24\n        /* \"#utility.yul\":6398:6399   */\n      0x00\n        /* \"#utility.yul\":6391:6406   */\n      revert\n        /* \"#utility.yul\":6418:6609   */\n    tag_47:\n        /* \"#utility.yul\":6458:6461   */\n      0x00\n        /* \"#utility.yul\":6477:6497   */\n      tag_121\n        /* \"#utility.yul\":6495:6496   */\n      dup3\n        /* \"#utility.yul\":6477:6497   */\n      tag_51\n      jump\t// in\n    tag_121:\n        /* \"#utility.yul\":6472:6497   */\n      swap2\n      pop\n        /* \"#utility.yul\":6511:6531   */\n      tag_122\n        /* \"#utility.yul\":6529:6530   */\n      dup4\n        /* \"#utility.yul\":6511:6531   */\n      tag_51\n      jump\t// in\n    tag_122:\n        /* \"#utility.yul\":6506:6531   */\n      swap3\n      pop\n        /* \"#utility.yul\":6554:6555   */\n      dup3\n        /* \"#utility.yul\":6551:6552   */\n      dup3\n        /* \"#utility.yul\":6547:6556   */\n      add\n        /* \"#utility.yul\":6540:6556   */\n      swap1\n      pop\n        /* \"#utility.yul\":6575:6578   */\n      dup1\n        /* \"#utility.yul\":6572:6573   */\n      dup3\n        /* \"#utility.yul\":6569:6579   */\n      gt\n        /* \"#utility.yul\":6566:6602   */\n      iszero\n      tag_123\n      jumpi\n        /* \"#utility.yul\":6582:6600   */\n      tag_124\n      tag_67\n      jump\t// in\n    tag_124:\n        /* \"#utility.yul\":6566:6602   */\n    tag_123:\n        /* \"#utility.yul\":6418:6609   */\n      swap3\n      swap2\n      pop\n      pop\n      jump\t// out\n\n    auxdata: 0xa264697066735822122096480d4aff8fdaecc3dc41ea784d1a2769298faabbf85d2ff84cd0f41d5182c964736f6c634300081a0033\n}\n",
				"bytecode": {
					"linkReferences": {},
					"object": "60806040525f6002553480156012575f80fd5b50335f806101000a81548173ffffffffffffffffffffffffffffffffffffffff021916908373ffffffffffffffffffffffffffffffffffffffff1602179055506106728061005f5f395ff3fe608060405234801561000f575f80fd5b5060043610610055575f3560e01c806308551a531461005957806312065fe01461007757806391b7f5ed14610095578063a035b1fe146100b1578063c290d691146100cf575b5f80fd5b6100616100eb565b60405161006e919061035c565b60405180910390f35b61007f61010e565b60405161008c919061038d565b60405180910390f35b6100af60048036038101906100aa91906103d4565b6101a5565b005b6100b9610283565b6040516100c6919061038d565b60405180910390f35b6100e960048036038101906100e491906103d4565b610289565b005b5f8054906101000a900473ffffffffffffffffffffffffffffffffffffffff1681565b5f805f9054906101000a900473ffffffffffffffffffffffffffffffffffffffff1673ffffffffffffffffffffffffffffffffffffffff163373ffffffffffffffffffffffffffffffffffffffff161461019d576040517f08c379a000000000000000000000000000000000000000000000000000000000815260040161019490610459565b60405180910390fd5b600254905090565b5f8054906101000a900473ffffffffffffffffffffffffffffffffffffffff1673ffffffffffffffffffffffffffffffffffffffff163373ffffffffffffffffffffffffffffffffffffffff1614610232576040517f08c379a000000000000000000000000000000000000000000000000000000000815260040161022990610459565b60405180910390fd5b80600181905550806001541461024b5761024a610477565b5b7f07ce702fc13ca0620c174dab22996a6d5fd9e7accb663555a4e85323692706ba604051610278906104ee565b60405180910390a150565b60015481565b60015481146102cd576040517f08c379a00000000000000000000000000000000000000000000000000000000081526004016102c490610556565b60405180910390fd5b7f07ce702fc13ca0620c174dab22996a6d5fd9e7accb663555a4e85323692706ba6040516102fa906105be565b60405180910390a18060025f8282546103139190610609565b9250508190555050565b5f73ffffffffffffffffffffffffffffffffffffffff82169050919050565b5f6103468261031d565b9050919050565b6103568161033c565b82525050565b5f60208201905061036f5f83018461034d565b92915050565b5f819050919050565b61038781610375565b82525050565b5f6020820190506103a05f83018461037e565b92915050565b5f80fd5b6103b381610375565b81146103bd575f80fd5b50565b5f813590506103ce816103aa565b92915050565b5f602082840312156103e9576103e86103a6565b5b5f6103f6848285016103c0565b91505092915050565b5f82825260208201905092915050565b7f496e76616c69642073656c6c657220616464726573732e0000000000000000005f82015250565b5f6104436017836103ff565b915061044e8261040f565b602082019050919050565b5f6020820190508181035f83015261047081610437565b9050919050565b7f4e487b71000000000000000000000000000000000000000000000000000000005f52600160045260245ffd5b7f5072696365206368616e676564207375636365737366756c6c790000000000005f82015250565b5f6104d8601a836103ff565b91506104e3826104a4565b602082019050919050565b5f6020820190508181035f830152610505816104cc565b9050919050565b7f4e6f7420656e6f7567682066756e647320746f207061792e00000000000000005f82015250565b5f6105406018836103ff565b915061054b8261050c565b602082019050919050565b5f6020820190508181035f83015261056d81610534565b9050919050565b7f4974656d2070616964207375636365737366756c6c79210000000000000000005f82015250565b5f6105a86017836103ff565b91506105b382610574565b602082019050919050565b5f6020820190508181035f8301526105d58161059c565b9050919050565b7f4e487b71000000000000000000000000000000000000000000000000000000005f52601160045260245ffd5b5f61061382610375565b915061061e83610375565b9250828201905080821115610636576106356105dc565b5b9291505056fea264697066735822122096480d4aff8fdaecc3dc41ea784d1a2769298faabbf85d2ff84cd0f41d5182c964736f6c634300081a0033",
					"opcodes": "PUSH1 0x80 PUSH1 0x40 MSTORE PUSH0 PUSH1 0x2 SSTORE CALLVALUE DUP1 ISZERO PUSH1 0x12 JUMPI PUSH0 DUP1 REVERT JUMPDEST POP CALLER PUSH0 DUP1 PUSH2 0x100 EXP DUP2 SLOAD DUP2 PUSH20 0xFFFFFFFFFFFFFFFFFFFFFFFFFFFFFFFFFFFFFFFF MUL NOT AND SWAP1 DUP4 PUSH20 0xFFFFFFFFFFFFFFFFFFFFFFFFFFFFFFFFFFFFFFFF AND MUL OR SWAP1 SSTORE POP PUSH2 0x672 DUP1 PUSH2 0x5F PUSH0 CODECOPY PUSH0 RETURN INVALID PUSH1 0x80 PUSH1 0x40 MSTORE CALLVALUE DUP1 ISZERO PUSH2 0xF JUMPI PUSH0 DUP1 REVERT JUMPDEST POP PUSH1 0x4 CALLDATASIZE LT PUSH2 0x55 JUMPI PUSH0 CALLDATALOAD PUSH1 0xE0 SHR DUP1 PUSH4 0x8551A53 EQ PUSH2 0x59 JUMPI DUP1 PUSH4 0x12065FE0 EQ PUSH2 0x77 JUMPI DUP1 PUSH4 0x91B7F5ED EQ PUSH2 0x95 JUMPI DUP1 PUSH4 0xA035B1FE EQ PUSH2 0xB1 JUMPI DUP1 PUSH4 0xC290D691 EQ PUSH2 0xCF JUMPI JUMPDEST PUSH0 DUP1 REVERT JUMPDEST PUSH2 0x61 PUSH2 0xEB JUMP JUMPDEST PUSH1 0x40 MLOAD PUSH2 0x6E SWAP2 SWAP1 PUSH2 0x35C JUMP JUMPDEST PUSH1 0x40 MLOAD DUP1 SWAP2 SUB SWAP1 RETURN JUMPDEST PUSH2 0x7F PUSH2 0x10E JUMP JUMPDEST PUSH1 0x40 MLOAD PUSH2 0x8C SWAP2 SWAP1 PUSH2 0x38D JUMP JUMPDEST PUSH1 0x40 MLOAD DUP1 SWAP2 SUB SWAP1 RETURN JUMPDEST PUSH2 0xAF PUSH1 0x4 DUP1 CALLDATASIZE SUB DUP2 ADD SWAP1 PUSH2 0xAA SWAP2 SWAP1 PUSH2 0x3D4 JUMP JUMPDEST PUSH2 0x1A5 JUMP JUMPDEST STOP JUMPDEST PUSH2 0xB9 PUSH2 0x283 JUMP JUMPDEST PUSH1 0x40 MLOAD PUSH2 0xC6 SWAP2 SWAP1 PUSH2 0x38D JUMP JUMPDEST PUSH1 0x40 MLOAD DUP1 SWAP2 SUB SWAP1 RETURN JUMPDEST PUSH2 0xE9 PUSH1 0x4 DUP1 CALLDATASIZE SUB DUP2 ADD SWAP1 PUSH2 0xE4 SWAP2 SWAP1 PUSH2 0x3D4 JUMP JUMPDEST PUSH2 0x289 JUMP JUMPDEST STOP JUMPDEST PUSH0 DUP1 SLOAD SWAP1 PUSH2 0x100 EXP SWAP1 DIV PUSH20 0xFFFFFFFFFFFFFFFFFFFFFFFFFFFFFFFFFFFFFFFF AND DUP2 JUMP JUMPDEST PUSH0 DUP1 PUSH0 SWAP1 SLOAD SWAP1 PUSH2 0x100 EXP SWAP1 DIV PUSH20 0xFFFFFFFFFFFFFFFFFFFFFFFFFFFFFFFFFFFFFFFF AND PUSH20 0xFFFFFFFFFFFFFFFFFFFFFFFFFFFFFFFFFFFFFFFF AND CALLER PUSH20 0xFFFFFFFFFFFFFFFFFFFFFFFFFFFFFFFFFFFFFFFF AND EQ PUSH2 0x19D JUMPI PUSH1 0x40 MLOAD PUSH32 0x8C379A000000000000000000000000000000000000000000000000000000000 DUP2 MSTORE PUSH1 0x4 ADD PUSH2 0x194 SWAP1 PUSH2 0x459 JUMP JUMPDEST PUSH1 0x40 MLOAD DUP1 SWAP2 SUB SWAP1 REVERT JUMPDEST PUSH1 0x2 SLOAD SWAP1 POP SWAP1 JUMP JUMPDEST PUSH0 DUP1 SLOAD SWAP1 PUSH2 0x100 EXP SWAP1 DIV PUSH20 0xFFFFFFFFFFFFFFFFFFFFFFFFFFFFFFFFFFFFFFFF AND PUSH20 0xFFFFFFFFFFFFFFFFFFFFFFFFFFFFFFFFFFFFFFFF AND CALLER PUSH20 0xFFFFFFFFFFFFFFFFFFFFFFFFFFFFFFFFFFFFFFFF AND EQ PUSH2 0x232 JUMPI PUSH1 0x40 MLOAD PUSH32 0x8C379A000000000000000000000000000000000000000000000000000000000 DUP2 MSTORE PUSH1 0x4 ADD PUSH2 0x229 SWAP1 PUSH2 0x459 JUMP JUMPDEST PUSH1 0x40 MLOAD DUP1 SWAP2 SUB SWAP1 REVERT JUMPDEST DUP1 PUSH1 0x1 DUP2 SWAP1 SSTORE POP DUP1 PUSH1 0x1 SLOAD EQ PUSH2 0x24B JUMPI PUSH2 0x24A PUSH2 0x477 JUMP JUMPDEST JUMPDEST PUSH32 0x7CE702FC13CA0620C174DAB22996A6D5FD9E7ACCB663555A4E85323692706BA PUSH1 0x40 MLOAD PUSH2 0x278 SWAP1 PUSH2 0x4EE JUMP JUMPDEST PUSH1 0x40 MLOAD DUP1 SWAP2 SUB SWAP1 LOG1 POP JUMP JUMPDEST PUSH1 0x1 SLOAD DUP2 JUMP JUMPDEST PUSH1 0x1 SLOAD DUP2 EQ PUSH2 0x2CD JUMPI PUSH1 0x40 MLOAD PUSH32 0x8C379A000000000000000000000000000000000000000000000000000000000 DUP2 MSTORE PUSH1 0x4 ADD PUSH2 0x2C4 SWAP1 PUSH2 0x556 JUMP JUMPDEST PUSH1 0x40 MLOAD DUP1 SWAP2 SUB SWAP1 REVERT JUMPDEST PUSH32 0x7CE702FC13CA0620C174DAB22996A6D5FD9E7ACCB663555A4E85323692706BA PUSH1 0x40 MLOAD PUSH2 0x2FA SWAP1 PUSH2 0x5BE JUMP JUMPDEST PUSH1 0x40 MLOAD DUP1 SWAP2 SUB SWAP1 LOG1 DUP1 PUSH1 0x2 PUSH0 DUP3 DUP3 SLOAD PUSH2 0x313 SWAP2 SWAP1 PUSH2 0x609 JUMP JUMPDEST SWAP3 POP POP DUP2 SWAP1 SSTORE POP POP JUMP JUMPDEST PUSH0 PUSH20 0xFFFFFFFFFFFFFFFFFFFFFFFFFFFFFFFFFFFFFFFF DUP3 AND SWAP1 POP SWAP2 SWAP1 POP JUMP JUMPDEST PUSH0 PUSH2 0x346 DUP3 PUSH2 0x31D JUMP JUMPDEST SWAP1 POP SWAP2 SWAP1 POP JUMP JUMPDEST PUSH2 0x356 DUP2 PUSH2 0x33C JUMP JUMPDEST DUP3 MSTORE POP POP JUMP JUMPDEST PUSH0 PUSH1 0x20 DUP3 ADD SWAP1 POP PUSH2 0x36F PUSH0 DUP4 ADD DUP5 PUSH2 0x34D JUMP JUMPDEST SWAP3 SWAP2 POP POP JUMP JUMPDEST PUSH0 DUP2 SWAP1 POP SWAP2 SWAP1 POP JUMP JUMPDEST PUSH2 0x387 DUP2 PUSH2 0x375 JUMP JUMPDEST DUP3 MSTORE POP POP JUMP JUMPDEST PUSH0 PUSH1 0x20 DUP3 ADD SWAP1 POP PUSH2 0x3A0 PUSH0 DUP4 ADD DUP5 PUSH2 0x37E JUMP JUMPDEST SWAP3 SWAP2 POP POP JUMP JUMPDEST PUSH0 DUP1 REVERT JUMPDEST PUSH2 0x3B3 DUP2 PUSH2 0x375 JUMP JUMPDEST DUP2 EQ PUSH2 0x3BD JUMPI PUSH0 DUP1 REVERT JUMPDEST POP JUMP JUMPDEST PUSH0 DUP2 CALLDATALOAD SWAP1 POP PUSH2 0x3CE DUP2 PUSH2 0x3AA JUMP JUMPDEST SWAP3 SWAP2 POP POP JUMP JUMPDEST PUSH0 PUSH1 0x20 DUP3 DUP5 SUB SLT ISZERO PUSH2 0x3E9 JUMPI PUSH2 0x3E8 PUSH2 0x3A6 JUMP JUMPDEST JUMPDEST PUSH0 PUSH2 0x3F6 DUP5 DUP3 DUP6 ADD PUSH2 0x3C0 JUMP JUMPDEST SWAP2 POP POP SWAP3 SWAP2 POP POP JUMP JUMPDEST PUSH0 DUP3 DUP3 MSTORE PUSH1 0x20 DUP3 ADD SWAP1 POP SWAP3 SWAP2 POP POP JUMP JUMPDEST PUSH32 0x496E76616C69642073656C6C657220616464726573732E000000000000000000 PUSH0 DUP3 ADD MSTORE POP JUMP JUMPDEST PUSH0 PUSH2 0x443 PUSH1 0x17 DUP4 PUSH2 0x3FF JUMP JUMPDEST SWAP2 POP PUSH2 0x44E DUP3 PUSH2 0x40F JUMP JUMPDEST PUSH1 0x20 DUP3 ADD SWAP1 POP SWAP2 SWAP1 POP JUMP JUMPDEST PUSH0 PUSH1 0x20 DUP3 ADD SWAP1 POP DUP2 DUP2 SUB PUSH0 DUP4 ADD MSTORE PUSH2 0x470 DUP2 PUSH2 0x437 JUMP JUMPDEST SWAP1 POP SWAP2 SWAP1 POP JUMP JUMPDEST PUSH32 0x4E487B7100000000000000000000000000000000000000000000000000000000 PUSH0 MSTORE PUSH1 0x1 PUSH1 0x4 MSTORE PUSH1 0x24 PUSH0 REVERT JUMPDEST PUSH32 0x5072696365206368616E676564207375636365737366756C6C79000000000000 PUSH0 DUP3 ADD MSTORE POP JUMP JUMPDEST PUSH0 PUSH2 0x4D8 PUSH1 0x1A DUP4 PUSH2 0x3FF JUMP JUMPDEST SWAP2 POP PUSH2 0x4E3 DUP3 PUSH2 0x4A4 JUMP JUMPDEST PUSH1 0x20 DUP3 ADD SWAP1 POP SWAP2 SWAP1 POP JUMP JUMPDEST PUSH0 PUSH1 0x20 DUP3 ADD SWAP1 POP DUP2 DUP2 SUB PUSH0 DUP4 ADD MSTORE PUSH2 0x505 DUP2 PUSH2 0x4CC JUMP JUMPDEST SWAP1 POP SWAP2 SWAP1 POP JUMP JUMPDEST PUSH32 0x4E6F7420656E6F7567682066756E647320746F207061792E0000000000000000 PUSH0 DUP3 ADD MSTORE POP JUMP JUMPDEST PUSH0 PUSH2 0x540 PUSH1 0x18 DUP4 PUSH2 0x3FF JUMP JUMPDEST SWAP2 POP PUSH2 0x54B DUP3 PUSH2 0x50C JUMP JUMPDEST PUSH1 0x20 DUP3 ADD SWAP1 POP SWAP2 SWAP1 POP JUMP JUMPDEST PUSH0 PUSH1 0x20 DUP3 ADD SWAP1 POP DUP2 DUP2 SUB PUSH0 DUP4 ADD MSTORE PUSH2 0x56D DUP2 PUSH2 0x534 JUMP JUMPDEST SWAP1 POP SWAP2 SWAP1 POP JUMP JUMPDEST PUSH32 0x4974656D2070616964207375636365737366756C6C7921000000000000000000 PUSH0 DUP3 ADD MSTORE POP JUMP JUMPDEST PUSH0 PUSH2 0x5A8 PUSH1 0x17 DUP4 PUSH2 0x3FF JUMP JUMPDEST SWAP2 POP PUSH2 0x5B3 DUP3 PUSH2 0x574 JUMP JUMPDEST PUSH1 0x20 DUP3 ADD SWAP1 POP SWAP2 SWAP1 POP JUMP JUMPDEST PUSH0 PUSH1 0x20 DUP3 ADD SWAP1 POP DUP2 DUP2 SUB PUSH0 DUP4 ADD MSTORE PUSH2 0x5D5 DUP2 PUSH2 0x59C JUMP JUMPDEST SWAP1 POP SWAP2 SWAP1 POP JUMP JUMPDEST PUSH32 0x4E487B7100000000000000000000000000000000000000000000000000000000 PUSH0 MSTORE PUSH1 0x11 PUSH1 0x4 MSTORE PUSH1 0x24 PUSH0 REVERT JUMPDEST PUSH0 PUSH2 0x613 DUP3 PUSH2 0x375 JUMP JUMPDEST SWAP2 POP PUSH2 0x61E DUP4 PUSH2 0x375 JUMP JUMPDEST SWAP3 POP DUP3 DUP3 ADD SWAP1 POP DUP1 DUP3 GT ISZERO PUSH2 0x636 JUMPI PUSH2 0x635 PUSH2 0x5DC JUMP JUMPDEST JUMPDEST SWAP3 SWAP2 POP POP JUMP INVALID LOG2 PUSH5 0x6970667358 0x22 SLT KECCAK256 SWAP7 BASEFEE 0xD BLOBBASEFEE SELFDESTRUCT DUP16 0xDA 0xEC 0xC3 0xDC COINBASE 0xEA PUSH25 0x4D1A2769298FAABBF85D2FF84CD0F41D5182C964736F6C6343 STOP ADDMOD BYTE STOP CALLER "
				},
				"gasEstimates": {
					"creation": {
						"codeDepositCost": "330000",
						"executionCost": "29636",
						"totalCost": "359636"
					},
					"external": {
						"getBalance()": "4601",
						"pay(uint256)": "2872",
						"price()": "2469",
						"seller()": "2483",
						"setPrice(uint256)": "28623"
					}
				},
				"methodIdentifiers": {
					"getBalance()": "12065fe0",
					"pay(uint256)": "c290d691",
					"price()": "a035b1fe",
					"seller()": "08551a53",
					"setPrice(uint256)": "91b7f5ed"
				}
			},
			"storageLayout": {
				"storage": [
					{
						"astId": 3,
						"contract": "contracts/Contract.sol:Contract",
						"label": "seller",
						"offset": 0,
						"slot": "0",
						"type": "t_address"
					},
					{
						"astId": 5,
						"contract": "contracts/Contract.sol:Contract",
						"label": "price",
						"offset": 0,
						"slot": "1",
						"type": "t_uint256"
					},
					{
						"astId": 8,
						"contract": "contracts/Contract.sol:Contract",
						"label": "sellerBalance",
						"offset": 0,
						"slot": "2",
						"type": "t_uint256"
					}
				],
				"types": {
					"t_address": {
						"encoding": "inplace",
						"label": "address",
						"numberOfBytes": "20"
					},
					"t_uint256": {
						"encoding": "inplace",
						"label": "uint256",
						"numberOfBytes": "32"
					}
				}
			},
			"userdoc": {
				"kind": "user",
				"methods": {},
				"version": 1
			}
		}
	}
}